:100000000C94CF020C9416030C9431030C94160339
:100010000C9416030C9416030C94641F0C94160392
:100020000C9416030C9416030C9416030C941603EC
:100030000C9416030C9416030C94401F0C94160396
:100040000C9416030C9416030C9416030C941603CC
:100050000C9416030C9416030C9416030C941603BC
:100060000C9416030C941603000A00FFFFFF000017
:100070000000000A55FFFFFF00000000000AD5FF46
:10008000FFFF00000000000A8466FFFF0000000080
:100090000000000000000000000000000000000060
:1000A0000000000000000000000000000000000050
:1000B000000000007E0F00D4FFFFFFC700000078A3
:1000C00000000000000000002A2B280000000000B3
:1000D00000000000000000000000002900000000F7
:1000E0002C1E3420212224342627252E362D373865
:1000F000271E1F202122232425263333362E37386E
:100100001F0405060708090A0B0C0D0E0F1011122B
:10011000131415161718191A1B1C1D2F3130232DF7
:10012000350405060708090A0B0C0D0E0F101112F5
:10013000131415161718191A1B1C1D2F3130354CA6
:1001400086007C00720068008600000000047F3F8B
:100150001F643214643214783C1E1E140A05000118
:100160000101010101010101020202020202020277
:100170000203030303030303030404040404040449
:10018000050505050506060606060707070707080D
:10019000080808090909090A0A0A0B0B0B0C0C0CC0
:1001A0000D0D0D0E0E0E0F0F0F101011111112125A
:1001B00013131414151516161717181819191A1AD7
:1001C0001B1B1C1D1D1E1E1F202021222223242438
:1001D000252626272829292A2B2C2D2D2E2F303174
:1001E0003232333435363738393A3B3C3D3E3F4086
:1001F0004142434445464748494A4C4D4E4F505171
:100200005354555658595A5B5D5E5F61626465662A
:1002100068696B6C6D6F7072737577787A7B7D7EB1
:100220008082838587888A8C8E8F91939596989A01
:100230009C9EA0A2A3A5A7A9ABADAFB1B3B5B7BA19
:10024000BCBEC0C2C4C6C9CBCDCFD1D4D6D8DBDDED
:10025000DFE2E4E7E9EBEEF0F3F5F8FAFDFFFFAAE1
:100260007F55402223252628292A2C2D2F30323352
:100270003536383A3B3D3E4042434547494A4C4E6D
:100280005051535557595A5C5E6062646668696B99
:100290006D6F71737577797B7D7F81838587898A9F
:1002A0008C8E90929496989A9C9E9FA1A3A5A7A8A5
:1002B000AAACAEAFB1B3B4B6B8B9BBBCBEBFC1C2D5
:1002C000C3C5C6C7C9CACBCCCDCED0D1D2D2D3D468
:1002D000D5D6D7D7D8D9D9DADADBDBDBDCDCDCDC86
:1002E000DCDDDDDDDDDCDCDCDCDCDBDBDBDADAD954
:1002F000D9D8D7D7D6D5D4D3D2D2D1D0CECDCCCBD6
:10030000CAC9C7C6C5C3C2C1BFBEBCBBB9B8B6B4F3
:10031000B3B1AFAEACAAA8A7A5A3A19F9E9C9A9883
:10032000969492908E8C8A89878583817F7D7B7954
:10033000777573716F6D6B6968666462605E5C5A35
:100340005957555351504E4C4A4947454342403EF8
:100350003D3B3A3836353332302F2D2C2A2928268A
:10036000252322015154005500630029005F0060DD
:10037000006100570000005C005D005E0057000057
:100380000059005A005B005800AA00620062006336
:10039000005800A9000100C35C0100005C010001DD
:1003A0000001000100010000000100010001000146
:1003B0000000000100010001000100010001000136
:1003C000000100010001000100C35C0100005C01AC
:1003D0000001000100010001000000010001000116
:1003E0000001000000010001000100010001000106
:1003F0000001000100010001000100C35C010000D8
:100400005C01000100010001000100000001000189
:1004100000010001000000010001000100010001D5
:10042000000100010001000100010005010902A115
:100430000185020901A100050919012908150025F6
:1004400001950875018102050109300931158125E1
:100450007F95027508810609381581257F950175FC
:10046000088106050C0A38021581257F950175085B
:100470008106C0C005010980A101850319012AB7C1
:1004800000150126B700950175108100C0050C0903
:1004900001A101850419012AA002150126A00295D7
:1004A0000175108100C00660FF0961A10109621594
:1004B0000026FF009520750881020963150026FFBC
:1004C00000952075089102C005010906A1010507E4
:1004D00019E029E7150025019508750181029501AC
:1004E000750881030507190029FF150026FF0095EF
:1004F0000675088100050819012905950575019102
:1005000002950175039103C01003530045004C0090
:1005100049004B00550052000000100353005500E5
:10052000470045004E0047005A000000040309043C
:1005300009025B00030100A0FA09040000010301A5
:100540000100092101010001224000070581030883
:10055000000109040100020300000009210101005B
:10056000012222000705840308000107050403088F
:10057000000109040200010300000009210101003B
:1005800001227B000705830308000112011001000E
:10059000000008E56005600100010200010011246F
:1005A0001FBECFEFD8E0DEBFCDBF04B603FE27C02D
:1005B0008091530390915403A0915503B091560339
:1005C0008730904BA740B04BD1F410925303109258
:1005D0005403109255031092560314BE84B7877FBC
:1005E00084BF0FB6F894A8958091600088618093CD
:1005F0006000109260000FBEE0E0F8E3099523E090
:10060000ACE8B1E001C01D92A335B207E1F711E0FB
:10061000A0E0B1E0ECEDFDE402C005900D92AC3835
:10062000B107D9F70E948B1F0C949F260C940000F1
:10063000A82FB92F80E090E041E050EA609530E0CB
:1006400009C02D9182279795879510F084279527CB
:10065000305EC8F36F5FA8F30895EADF8D939D9332
:100660000895CF93CFB7CF93DF93C3954B9BE9F713
:100670004B9B10C04B9B0EC04B9B0CC04B9B0AC0AE
:100680004B9B08C04B9B06C0C0912D03C395C093E4
:100690002D038EC06F93C0912C03DD27CF5CDC4F00
:1006A0002F9365E54B9B03C02F916F91E1CF0F9383
:1006B0001F934F9320E040E15F9309B10C7003FB5F
:1006C00027F93F9350E03BE039C01C7040642F771E
:1006D000012F5F5F1EC0406819B11C702F77525008
:1006E0001FC0406409B12F770C70D1F15F5F00C06B
:1006F00023C0406219B12F771C7091F15F5F00C079
:1007000025C00C701027515012F45D5F000011508D
:1007100027952C3F19B1C8F61C7001270150279569
:100720002C3FC8F64227499309B10C7010274F732C
:10073000115027952C3FA8F64695469519B11C7087
:1007400079F00127015027952C3F98F66B5A60F3FA
:10075000315009B1B0F600C012E01CBB00271CC02C
:100760003B503195C31BD04012E01CBB0881033CB9
:1007700021F10B3411F120912A031981110F121369
:10078000EDCF4A81441F093679F10D3211F0013E57
:1007900029F74F7009F0042F009330033F915F91C8
:1007A0004F911F910F912F916F91CCB3C1FD5DCFF0
:1007B000DF91CF91CFBFCF911895209130032223A5
:1007C00069F310912E03112309F049C034300AF463
:1007D00048C030932E0320932B0310912C033BE051
:1007E000311B30932C033DC000912E030130BCF52A
:1007F0000AE54F7049F43091190134FD33C000937C
:100800001901C7E0D3E032C0433059F0443091F0D1
:100810003091120334FD26C000931203C3E1D3E0EC
:1008200025C03091470334FD1DC000934703C8E441
:10083000D3E01CC030911E0334FD14C000931E038E
:10084000CFE1D3E013C0052710E000C000000BB9D2
:100850001AC0052710E0221F1DC010E021C04AE584
:1008600002C032ED432FC4E1D0E032E01AB11C6087
:100870005B9A0BB11AB95CE020E865E320FF05271D
:100880000BB9279517951C3FF0F66695B8F7B1F7A9
:1008900020FF05270BB9279517951C3FD0F6279504
:1008A000179517FF052700001C3F0BB9B0F62991DB
:1008B0003A9519F7037F10912F03110FC651D040BD
:1008C0000BB911F010932A0312E01CBB08601AB197
:1008D000137F402F437F54E05A95F1F70BB91AB9B3
:1008E0004BB95CCFFC018381833081F130F48130DE
:1008F000E9F0823019F180E00895813209F440C0B6
:100900008232C9F7248135812130310509F44DC087
:100910002230310509F450C0232B69F788EC94E0AC
:10092000909302038093010380E408958BE895E09F
:10093000909302038093010382E1089580E395E0A0
:1009400090930203809301038BE5089582818130A7
:1009500061F0823091F08111CECF8CE295E09093DE
:1009600002038093010384E008958AE195E0909367
:1009700002038093010380E1089588E095E0F7CFBA
:100980008281813061F0823069F08111B4CF82E4DC
:1009900095E0909302038093010389E008958BE52D
:1009A00095E0F7CF8BE795E0F4CF26EA34E030937B
:1009B00002032093010308958BE294E090930203D5
:1009C000809301038BE708958091FC02089588E1EC
:1009D00098E00FB6F894A895809360000FBE9093AE
:1009E0006000A895F894D8E0CEEF28E3299320E0A2
:1009F000299314BEFFCF08959C014FB7F8948091BE
:100A0000450290914602A0914702B09148024FBF23
:100A1000821B930B08952FB7F89480914502909113
:100A20004602A0914702B09148022FBF089520913D
:100A30003702309138022817390771F09093380245
:100A400080933702E0913502F0913602309721F021
:100A50000084F185E02D09940895209133023091AE
:100A600034022817390771F09093340280933302CF
:100A7000E0913502F0913602309721F00680F7813F
:100A8000E02D09940895E0913502F09136023097F7
:100A900021F00190F081E02D099480E00895FA01A1
:100AA00081110994FB01FDCF089580913D02982F9B
:100AB0009E7F29F48170826080933D0208958A347C
:100AC000E8F381708864F8CF8F929F92AF92BF92C3
:100AD000CF92DF92EF92FF920F931F93CF93DF930A
:100AE000D82EC62EE901E42FF0E0E25AFE4F611144
:100AF00013C04491942FE42FE98348839A83DF91B4
:100B0000CF911F910F91FF90EF90DF90CF90BF900A
:100B1000AF909F908F900895062F10E0E49186E0AB
:100B2000D89E700111242FEF30E0C701B9010E9457
:100B3000A0258D2D90E0880F991FF5E5F69FA00167
:100B4000F79F500D1124841B950B982F990F890F37
:100B5000A901401B510BE49FD001E59FB00D11246A
:100B60004B2FC89E60011124CD2CDD245901AC18F7
:100B7000BD08EA9D6001EB9DD00C11249D2D49011B
:100B8000881A9108809E5001819EB00C909EB00CF6
:100B90001124AB2CBB242A193B09E29F8001E39F5F
:100BA000100D112463307105D1F08CEFE81683E04D
:100BB000F80670F461307105B1F062307105B9F07A
:100BC0008FEFE816F10408F097CF9B2F412F94CFB9
:100BD0006430710579F066307105B9F38DCF4D2D14
:100BE0009E2FEB2F89CF4E2FED2D9B2F85CF912F51
:100BF0004E2FF7CF9E2FE12F7FCF0E940B05209124
:100C0000060230910702232B21F080930202909379
:100C100003022091080230910902232B21F08093D6
:100C2000000290930102E0913502F0913602309774
:100C300049F082E0809304020480F581E02D84E095
:100C400092E00994089540910602803F59F4809102
:100C5000070287FF0DC01092070241110BC01092CE
:100C6000FE0108C0813F81F48091070218169CF3B1
:100C7000442381F08091080290910902892B09F0A8
:100C80005AC01092FD010895823F49F447FFF0CF0A
:100C900010920602809107028111ECCFE0CF833FD2
:100CA00019F41416ACF3E4CF90910802893F29F4AB
:100CB0001916F4F610920802DBCF8A3F19F497FF59
:100CC000D7CFF8CF909109028B3F29F497FFD0CF6F
:100CD00010920902CDCF8C3F19F41916CCF3C8CF6E
:100CE0009CE0980F953090F4845F990B21E030E000
:100CF000B90102C0660F771F8A95E2F7CB01809594
:100D000090910502892380930502B2CF8D3F31F483
:100D10008091FF018E7F8093FF01AACF8E3F21F447
:100D20008091FF018D7FF7CF8F3F09F0A1CF809198
:100D3000FF018B7FF0CF08958091FF0180FD16C0E9
:100D400081FD16C082FD16C08091FD018823A1F0AF
:100D5000883280F428E0829FC001112468E270E0AC
:100D60000E94B425862F672B39F0089582E00895FC
:100D700084E0089588E0089581E008958091FF015E
:100D800080FD14C081FD14C082FD16C08091FE015B
:100D9000882381F0843180F422E3829FC0011124F2
:100DA00064E170E00E94B425862F08958CE00895D8
:100DB00089E1089585E0089582E30895803F31F444
:100DC0000E94BE068195809307020895813F19F421
:100DD0000E94BE06F8CF823F31F40E94BE06819584
:100DE000809306020895833F19F40E94BE06F8CF4F
:100DF000893F29F40E949C068093080208958A3F47
:100E000021F40E949C068195F7CF8B3F31F40E941C
:100E10009C0681958093090208958C3F19F40E94E5
:100E20009C06F8CF9CE0980F953070F4845F990B86
:100E300021E030E001C0220F8A95EAF78091050297
:100E4000822B8093050208958D3F31F48091FF013C
:100E500081608093FF0108958E3F21F48091FF010E
:100E60008260F7CF8F3FB9F78091FF018460F1CFA7
:100E700080E00895F894E82FE295EF70F0E041A14A
:100E80008F7021E030E0B90102C0660F771F8A95AC
:100E9000E2F7CB01962F9095942391A392A1892BF1
:100EA00082A3789408959091E40192FF06C0282FC0
:100EB00028712830F9F4877F846093FF06C0282FBB
:100EC00028712831F1F4877E84612091E50120FFAB
:100ED00006C0382F38713830D9F4877F816021FF00
:100EE00006C0282F28712831D1F4877E816194FDB6
:100EF000877E0895282F24712430F9F68B7F88602F
:100F0000DCCF282F2471243101F78B7E8861DDCF5F
:100F1000382F3171313019F78E7F8860E0CF282F5C
:100F20002171213121F78E7E8861E1CFCF93DF934C
:100F3000EC01803E910509F460C050F581339105C4
:100F400009F4A6C090F48932910509F49AC08A97F1
:100F500009F4A5C0C130D10509F462C0CE010497DF
:100F6000813A910508F055C05BC089339105F1F1D4
:100F700082389105D9F1C59709F47CC0C83AD105EA
:100F800008F094C0C53AD10528F3A497D06448C0AE
:100F9000843E910509F453C068F4823E9105E1F165
:100FA000833E910509F440C0CE01805E9109089707
:100FB00080F536C0863E910509F44CC0873E910508
:100FC00009F44DC0811522E5920708F0AAC08115E9
:100FD00031E5930708F0FAC08F3F910511F008F052
:100FE00074C0803F910550F2D0651AC08091E40131
:100FF0008370B1F0C0EED0E013C08091E40180FDB9
:1010000012C19091E50190FF0BC0C3EED0E084FFC8
:1010100007C0D0E0C0E004C08091E40182FDF5CFBC
:10102000CE01DF91CF9108958091E40182FDFEC051
:101030009091E50190FDDECF84FFF2CFEACF809161
:10104000E50181FFEDCF8091E401C7EED0E084FDA2
:10105000E0CFE6CF8091E40183FDF7CFE1CF80912F
:10106000E40183FDE6C09091E50191FFE5CFC4EE78
:10107000D0E0D6CF8091E40185FFD2CFC9E2D0E0A5
:10108000CFCF8091E40185FFCBCFC5E3D0E0C8CFBF
:101090008091E40186FFC4CFCAE2D0E0C1CF809145
:1010A000E40186FFBDCFC1E3D0E0BACFCF3BD1058D
:1010B00008F07ACFC85AD0E0CC0FDD1FC25EDE4FF9
:1010C0000990D881C02DD464ABCF811540E5940739
:1010D00060F4C11580E4D80708F075C0CE019A9578
:1010E00081159F4108F49CCF94CFF4E096958795A5
:1010F000FA95E1F783702C2F26952695237040E210
:10110000249F90011124382B8C2F8370C1E0D0E0F4
:1011100002C0CC0FDD1F8A95E2F7C22BD32BDC680F
:101120007FCFC11586E5D80730F5C11595E5D907FC
:1011300008F060C0C11524E5D207C0F49C2F969535
:1011400096959E0123703327C115D34508F043C0FF
:10115000C1E0D0E002C0CC0FDD1F2A95E2F720E20B
:10116000929FC0011124C82BD92BD9CFDC2FCC27BB
:10117000C46FD06A55CFC1153AE5D30788F4C115BD
:1011800049E5D40708F041C0CE0198558F3F91053D
:1011900011F008F03ECFDC2FCC27C06FD06A40CFD3
:1011A000CE0190568115904208F033CF8D2F8F716C
:1011B0000E94530790E0982F882788279F719C01F1
:1011C0002C2BE90120C0DF70D06A2ACFD82FCC2782
:1011D000C16FD06A25CFC1E0D0E002C0CC0FDD1FC7
:1011E0002A95E2F730E2939FC0011124C82BD92B36
:1011F000DA6816CF8C2F0E945307C82FD0E0DC2F5F
:10120000CC27CC27DF71D0620BCF8C2F8F700E9440
:10121000530734E0D695C7953A95E1F7CF70DC2FA8
:10122000C82FD069FDCEC9E3D0E0FACEC2EED0E03F
:10123000F7CEC6EED0E0F4CE8091DF01811110929E
:10124000DF0108958091DE019091DD01892B90915D
:10125000DC01892B80938E019091DF01992391F01D
:10126000892B80938E0120E080E991E0FC013081A0
:10127000019631112F5F31E086399307B9F72111BB
:101280000E941C09E0913502F0913602309731F04E
:101290000280F381E02D8EE891E009940895E0E961
:1012A000F1E09191891303C0DF0111971C9291E045
:1012B000E639F907B1F70895A0E9B1E0EFEF90E062
:1012C0002D91821751F0EF3F19F4211101C0E92F40
:1012D0009F5F9630A9F7EF3F09F408950E2E000C9A
:1012E000FF0BE257FE4F828308958091DA019091BF
:1012F000A901981301C008958F5F8770FACF292F35
:10130000220F220FE22FE90FE80F9E2F9770E6952C
:10131000E695E69583E0E89FF0011124E956FE4F3B
:1013200050E040E080E0219130E0092E02C0369587
:1013300027950A94E2F721703327042E01C0220F6B
:101340000A94EAF7822B4F5F5F4F4330510559F7FC
:101350000895292F220F220FE22FE90FE80F8E2F79
:10136000877041E001C0440F8A95EAF7E695E6955B
:10137000E69583E0E89FF0011124E956FE4F30E046
:1013800020E070E05191DF011197CB01022E02C0E5
:10139000969587950A94E2F7817081958527842335
:1013A00085278C932F5F3F4F2330310559F70895E0
:1013B00090E080E00E942D0590E080E00E941705FB
:1013C0001092DD011092DC010E94220986E0E4E027
:1013D000F2E0DF011D928A95E9F71092FE0110926A
:1013E000FD011092FF010C94FD058093E0010C9427
:1013F000D809882341F080959091DD01892380935D
:10140000DD010C9422090895882339F09091DD01C3
:10141000892B8093DD010C9422090895882341F0E3
:1014200080959091DE0189238093DE010C9422093E
:101430000895882339F09091DE01892B8093DE0195
:101440000C9422090895882309F459C0823871F454
:101450000E94430581FF53C089E30E945C090E94FA
:10146000220989E30E944F090C942209833859F418
:101470000E94430580FF43C083E50E945C090E94EF
:10148000220983E5EFCF843859F40E94430582FF97
:1014900036C087E40E945C090E94220987E4E2CFFB
:1014A0009CEF980F913AF0F290E2980F983088F400
:1014B000877021E030E0A90102C0440F551F8A95D2
:1014C000E2F7CA0180959091DE0189238093DE01C5
:1014D000CBCF9BE5980F933020F490E080E00C9404
:1014E0002D0598E5980F973120F490E080E00C945A
:1014F0001705803F20F00E9423060C94FD050895F7
:101500000F931F93462F572FBC01DC01CA01F4E053
:10151000B695A79597958795FA95D1F70097A10568
:10152000B10501F1AC01BD0184E08A019B01E2E05B
:101530003695279517950795EA95D1F70115110569
:101540002105310519F08E5FB901A80176956795DF
:1015500057954795452B462B472B09F08F5F1F91D9
:101560000F91089580E0E1CF9C019A9581159F41EC
:1015700050F5D901AA27B170F901EE27F270B9012F
:1015800066277470A9014427587034FF0EC080E1AB
:10159000AB2B09F480E0EF2B09F08062672B09F098
:1015A0008064452B89F08068089581E0AB2B09F4B5
:1015B00080E0EF2B09F08260672B09F08460452BF7
:1015C00019F08860089580E00895CF93DF93EC01CF
:1015D0000E94230ACE010E94B40A9E01205E3109B6
:1015E0002830310510F0CD2B21F4DF91CF910C94F0
:1015F0000E0ADF91CF910C94F909CF93DF9380917C
:101600002E03835087FD14C090912C03CCE0D0E0D2
:10161000C91BD109CF5CDC4F90912B03903108F0AE
:1016200070C0883009F458C01092F10210922E0355
:101630008091190184FF43C0809118018F3F09F404
:101640003EC0C82F893008F0C8E0982F9C1B9093AB
:1016500018019091070328E89227909307038823A5
:1016600001F180910103909102032091000326FF74
:101670000AC1FC012C2F48E053E03491DA013C937D
:101680004F5F5F4F31962150C1F79C012F5F3F4F55
:101690008FEF8C0F820F932F911D909302038093F5
:1016A00001036C2F88E093E00E942D0384E08C0FEF
:1016B000C83019F09FEF909318018093190184E1CD
:1016C00099B19C7031F48150D9F710922F03109288
:1016D0002A03DF91CF9108958091F102893108F0BA
:1016E000A3CFE82FF0E0EF52FD4F9E01285F3F4F60
:1016F000999191932C173D07D9F7885F8093F10258
:1017000095CF9D3209F0A3C0883009F08FCF83ECCC
:10171000809307038AE58093190110920003888162
:10172000807609F447C0803229F58981813099F4A7
:101730008C819D81892BF1F483EF92E090930203D9
:101740008093010388E09F81911131C09E81981799
:1017500070F5892F2CC0823041F482EF92E0909393
:1017600002038093010381E0EECF8A3029F48B815C
:101770008093F20280E0E7CF8930E1F78A819B8194
:101780008115924069F48C819D81892B49F481E017
:101790008093FF028E819F819093FE028093FD02D1
:1017A000888187FF52C08E8190E8909300038093D8
:1017B00018013CCF2A8110921003998191110AC01F
:1017C0001092110320E133E082E030930203209372
:1017D0000103B9CF953029F420932F0320E133E0A2
:1017E000F4CF9630C1F49B81913049F4CE010E9430
:1017F000720490E4909300038F3F91F2A4CF923053
:10180000A9F3933099F3913289F3923279F390E40A
:101810009093000398CF983089F0993019F4209371
:10182000FB02DCCF9A3071F09B30C1F69BE49093C1
:1018300013039093480390931F03D0CF2BEF32E014
:1018400081E0C3CF20E133E0FBCF8FEFADCF8091BC
:10185000000387FFEBCE8091FD029091FE02892B61
:1018600071F08091FF02813051F488818093FC02F5
:101870001092FE021092FD0210921801D7CE8EE156
:1018800080931901D3CEDC012C2F48E053E0FA01FC
:101890003D9130834F5F5F4F2150C9F7F6CE1F93C4
:1018A000CF93DF93782F162FEA01888184FF1EC023
:1018B000898128E882278983AE014E5F5F4FFA0154
:1018C000272F392F710FD9012F5F3F4F8C918193B3
:1018D000872F821B1816BCF3612FCA010E942D03AB
:1018E0001C5F1883DF91CF911F9108958AE588834B
:1018F000E3CF2091470324FF05C047E453E066E0AF
:101900000C944F0C08959B019091D002981307C03E
:101910004091CE025091CF0246175707B9F08093FD
:10192000D0023093CF022093CE028093CB0230932B
:10193000CD022093CC028091470384FF07C047E487
:1019400053E063E08BEC92E00C944F0C0895BC01E3
:1019500084E00C94830CBC0183E00C94830CCF9343
:10196000DF93CAE0D0E08091120384FF1CC0809115
:10197000C9029091CA02981799F028E0829FC0018D
:10198000112442E153E068E0875B9D4F0E944F0CB9
:101990008091C90290E001968F7099278093C902C7
:1019A000DF91CF9108950E94FD0A8FE99FE0019792
:1019B000F1F700C000002197B1F6F2CFCF93DF938B
:1019C000D82FC92FA091CA02B0E0CD0101968F7027
:1019D00099272091C902281781F093E0AA0FBB1F15
:1019E0009A95E1F7A75BBD4F98E0ED2FFC2F019092
:1019F0000D929A95E1F78093CA020E94FD0A0E9417
:101A0000AF0C88E0ED2FFC2FA3EFB2E001900D9218
:101A10008A95E1F7DF91CF910895CF93C82F88235E
:101A200009F48FC08238C1F40E94430581FD89C04A
:101A300089E30E945C090E9422092FEF31EE84E0C5
:101A4000215030408040E1F700C0000089E30E944F
:101A50004F09CF910C9422098338A1F40E944305C9
:101A600080FD6FC083E50E945C090E9422099FEF00
:101A700021EE34E0915020403040E1F700C00000FA
:101A800083E5E5CF8438A1F40E94430582FD59C067
:101A900087E40E945C090E9422098FEF91EE24E006
:101AA000815090402040E1F700C0000087E4CFCF94
:101AB0008CEF8C0F813A68F4E0E9F1E08191C8176E
:101AC000D1F131E0E639F307C9F78C2F0E945C09A8
:101AD000C0CF80E28C0F883068F4C77021E030E01E
:101AE00001C0220FCA95EAF78091DE01822B809314
:101AF000DE01AFCF8BE58C0F833038F42C2F2452CE
:101B0000330BC901CF910C942D05E8E5EC0FE731BB
:101B100050F4F0E0EE0FFF1FE25EFE4F80819181F6
:101B2000CF910C941705C03F60F08C2F0E94DE0609
:101B3000CF910C94FD058C2F0E944F090E94220921
:101B4000C4CFCF9108950F931F93CF93C82F0AE06E
:101B500010E0893311F400E510E08C2F0E940D0D88
:101B60008FE99FE00197F1F700C0000001501109D3
:101B7000B9F78C2FCF911F910F910C94230AFF92EC
:101B80000F931F93CF93DF93C62FD42F122FFC01F7
:101B900082818823A9F0609305030E940B0590932E
:101BA000040380930303C77081E001C0880FCA95C6
:101BB000EAF7DF91CF911F910F91FF900C94190AD2
:101BC00080910503681334C080910303909104034E
:101BD0000E94FC04883C910558F500E20D0FCD17DA
:101BE000A9F0C770FF24F3948F2D01C0880FCA9508
:101BF000EAF70E940E0A083048F48D2F877001C062
:101C0000FF0C8A95EAF78F2D0E94190A812F0E94F6
:101C1000A30D0830A0F4D77081E001C0880FDA95D9
:101C2000EAF7DF91CF911F910F91FF900C940E0A6C
:101C3000C77081E001C0880FCA95EAF7F2CFDF9143
:101C4000CF911F910F91FF900895CF93DF93EC01F7
:101C50000E94B40A9E01205E31092830310510F03F
:101C6000209739F40E94190A8C2FDF91CF910C94A0
:101C70000D0D0E94040AF8CFCF93DF93CFEED0E092
:101C800060E0CE010E9427262196C11584E0D80786
:101C9000B9F7DF91CF9108956F927F928F929F92C3
:101CA000AF92BF92CF92DF92EF92FF920F931F936A
:101CB000CF93DF93D12CC12C33E6A32EB12CE501B9
:101CC000E29736011BC0F70185909490692DC801F9
:101CD0000E942726682DC80101960E94272622E02F
:101CE000E20EF11C0E5F1F4FC017D10761F735E000
:101CF000630E711C2A96CA15DB0559F0C301880FC3
:101D0000991F9C012D593C4F79018E010A501109F0
:101D1000DACFCE01C2965C0199E1C90ED11CC93F50
:101D2000D10569F6DF91CF911F910F91FF90EF9050
:101D3000DF90CF90BF90AF909F908F907F906F90EB
:101D40000895CF93C82F6FEF811162E283E290E094
:101D50000E9427266FEFC11168E084E290E00E94A4
:101D600027266FEFC11161E385E290E0CF910C94DB
:101D7000272680E00E94A10E60E086E290E00E94AB
:101D800027260E944C0E0E943C0E81E00C94A10E6E
:101D9000CF93C091E501C2FB992790F9981781F084
:101DA00080FBC2F9C093E5016091E40184E090E01A
:101DB0000E9427266C2F82E290E0CF910C94272678
:101DC000CF9108950F931F93CF93DF93C42FD0E04B
:101DD000CC0FDD1F2AE0629FC00DD11D112432E31C
:101DE000839FC00DD11D1124CE0187960E9413261A
:101DF000082F10E0102F0027CE0188960E9413268E
:101E00009801282BC901DF91CF911F910F9108955F
:101E1000462F672F843030F4753020F4453010F4AD
:101E20000C94E20E90E080E00895DF92EF92FF9232
:101E30000F931F93CF93DF937C0100910603809152
:101E4000E001082BC7E0D0E010E0DC2EC8010C2E2A
:101E500002C0959587950A94E2F780FD0CC0219702
:101E6000A0F7D12C8D2DDF91CF911F910F91FF9075
:101E7000EF90DF900895B7018C2F0E94080F0E9409
:101E80009607019761F3EECFCF93DF93D82FC92F39
:101E90000E94150F6D2F7C2F0E94080FDF91CF91AC
:101EA0000C949607FC01808191810E94440F282F99
:101EB000892F8F70392F32953F70903C80F43A30E3
:101EC000B0F4343020F4323090F480E008953630AD
:101ED000E1F781E0283E88F0213FB9F70EC03C30A1
:101EE00011F03F3091F7869586958695089581E0AB
:101EF000203F39F018F4283E40F70895243F29F791
:101F0000FCCF089583E290E00E941326823289F488
:101F100084E290E00E941326883059F485E290E034
:101F20000E94132691E0813309F090E0892F81709F
:101F3000089580E0FCCFCF9384E090E00E941326C8
:101F4000C82F82E290E00E941326982F8C2FCF9109
:101F5000089560913D02669570E04BE050E08AE0A4
:101F600091E00E94F925892B19F481E080933A02CF
:101F70000E940B0590930D0280930C0208955F92CE
:101F80006F927F928F929F92AF92BF92CF92DF9289
:101F9000EF92FF920F931F93CF93DF9300D000D067
:101FA0000F92CDB7DEB780913D0280FD0AC0E5E11A
:101FB000F2E0118210821282339622E0E333F207BC
:101FC000C1F780900A0290900B028114910409F4E9
:101FD00059C080914202811155C0D12CC12C662478
:101FE0006394712C53E0552E80913B0293010C2C8D
:101FF00001C0220F0A94EAF7822309F43BC0F601DC
:10200000EE0FFF1FE80DF91DE590F490E114F104C7
:10201000C9F145E050E0B701CE0101960E94F025DC
:1020200009810F3F39F18A81800F9927991F8B30E1
:10203000910514F08AE090E05C01AA0CBB1C8A0DAB
:102040009B1D9C012B5E3D4F5901059D8001112474
:102050000B5E1D4F0A151B0520F035E0E30EF11C49
:10206000D8CF98014D816C818B810E9464050D5FF2
:102070001F4FF0CF5FEFC51AD50A88E0C816D1040C
:1020800009F0B2CF209A35B13E7F25B121604FB71C
:10209000F89485E192E0FC010196508168E025B951
:1020A000000000C057FF35B9550F000000C000C048
:1020B00000C035B900C06A9591F752E083339507A7
:1020C00051F74FBF8FE594E00197F1F700C0000092
:1020D0000F900F900F900F900F90DF91CF911F9165
:1020E0000F91FF90EF90DF90CF90BF90AF909F90B7
:1020F0008F907F906F905F900895EF92FF920F9373
:102100001F93CF93DF93EC0105E112E0F12CE12C5A
:1021100060913F0280913E029C8125E0E216F1042D
:10212000FCF49923F9F09801409140020E94640563
:102130008FEFE81AF80A0D5F1F4F2AE0E216F1044C
:1021400039F70E94BF0F8C8190E00196817099272A
:102150008C83DF91CF911F910F91FF90EF900895A5
:10216000992309F3980140E0E1CFCF92DF92EF92FB
:10217000FF920F931F93CF93DF93CDB7DEB72E97C8
:102180000FB6F894DEBF0FBECDBF8D879E87AD859D
:10219000BE8514961C91212F30E0D9010E94902613
:1021A0009B01AC010E945B2669837A838B839C83AD
:1021B000E0E2F0E0E11BF109A5E5B0E09B01AC0134
:1021C0000E945B2669877A878B879C879F01DF0146
:1021D0000E94D5259B01AC010E9466266D837E83FB
:1021E0008F8398879B01AC0189819A81AB81BC81E7
:1021F000280F391F4A1F5B1F69857A858B859C854F
:102200000E946E26F22E822F90E0A9E2A21708F417
:1022100042C0B3E02B9F9001112435952795122FD2
:10222000109595E1C92E92E0D92E00E085E5E82EC3
:10223000EF188E2D01FD8F2D9601412F60913F02E9
:102240000E9464050F5FF3E0CF0ED11C0A3089F7BE
:102250000E94BF0FAD85BE8514969C9181E09923A5
:1022600019F0903219F48FEF8093170180911701C4
:10227000890FED85FE8584832E960FB6F894DEBF18
:102280000FBECDBFDF91CF911F910F91FF90EF90C7
:10229000DF90CF90089525E530E0F901E81BF90BB8
:1022A0009F01220F331F2E0F3F1F37FFB6CF2F5F27
:1022B0003F4FB3CF0F931F93CF93DF93C5E1D2E08E
:1022C000FE01118210821282339682E0E333F80716
:1022D000C1F710E000E080911302082E000C990B6A
:1022E000081719078CF180911601082E000C990B24
:1022F000801791074CF19E014091400260913F028E
:1023000080913E020E9464050F5F1F4F23960A30A2
:10231000110509F70E94BF0F8091150190911302DA
:10232000980F9093130220911601280F2093160105
:10233000121614F499301CF0819580931501DF91E9
:10234000CF911F910F910895198218821A82DCCFC4
:10235000CF92DF92EF92FF920F931F93CF93DF9371
:10236000FC018281DD24DA9480FD02C0DD24D39457
:1023700005E112E0D0E0C0E0F80111821082128283
:1023800094E0E92EF12CC12C809112028C0D8B303F
:10239000E4F16AE00E949225892F082E000C990B27
:1023A0008C179D0791F4809140028E9DA0018F9D16
:1023B000500D112455954795559547959801609175
:1023C0003F0280913E020E946405CD0CF1E0EF1ABD
:1023D000F108D1F621960D5F1F4FCA30D10561F685
:1023E0000E94BF0F8091120291E0D91214C0811196
:1023F00010C089E080931202DF91CF911F910F915D
:10240000FF90EF90DF90CF90089587FFC6CF865F53
:10241000C4CF8150EFCF90E00196BE010E94B42559
:10242000E9CFEF92FF921F93CF93DF93EC0185E109
:10243000E82E82E0F82E10E08C8197014091400256
:1024400060913F02810F0E946405175E83E0E80EF1
:10245000F11C1A3F89F70E94BF0F9A818C8190FF6F
:1024600008C08F5F8C83DF91CF911F91FF90EF9019
:1024700008958150F7CF90913D0290FF0CC0E5E1A7
:10248000F2E0818360834283339692E0E333F9077D
:10249000C1F70C94BF0F08950F931F93CF93DF9351
:1024A00000D00F92CDB7DEB78C018091140281115C
:1024B0000AC09E012F5F3F4F4FEF6FEF0E946405F0
:1024C0008A8180931402F8016481613049F062309E
:1024D000F1F08091140240E0662331F040E019C031
:1024E0006091140240E080E00E943B12F801848178
:1024F00090E0019663E070E00E94B42584830F9021
:102500000F900F90DF91CF911F910F9108954091FF
:10251000140280E060E0E8CFCF93DF9300D00F9209
:10252000CDB7DEB790913D0290FF0AC09E012F5FAC
:102530003F4F0E9464054B8169818A810E943B1252
:102540000F900F900F90DF91CF910895CF93DF936D
:10255000EC01EDE3F2E0438162818C810E948C12F8
:102560008C818F5F8C83DF91CF910895CF93DF9320
:10257000EC01EC81F0E0ED59FD4F4491EDE3F2E028
:10258000628181810E948C128C818F5F8C83DF91AC
:10259000CF9108950F931F93CF93DF938B01D82F83
:1025A000C92F0E945505A8016D2F7C2F88E090E06F
:1025B000DF91CF911F910F910C9439265F926F920A
:1025C0007F928F929F92AF92BF92CF92DF92EF92C3
:1025D000FF920F931F93CF93DF9300D000D000D0D2
:1025E0000F92CDB7DEB7182F762E042F622E909162
:1025F0003D0290FF2BC0E92FE695AE2FB0E0AA591F
:10260000BE4F8C91809339029E7F9230A9F59E0136
:102610002F5F3F4F812F0E9464054B8169818A8122
:102620000E943B1210933E0270923F0200934002C0
:10263000662061F080913D0290913E02A0913F02A0
:10264000B0914002BC01CD010E94CA1227960FB67C
:10265000F894DEBF0FBECDBFDF91CF911F910F91D8
:10266000FF90EF90DF90CF90BF90AF909F908F90B2
:102670007F906F905F900895823019F4009140022E
:10268000D1CF863019F410913E02CCCF8930D9F3E6
:10269000893141F6E9518E2F8170582EE695F0E090
:1026A000E25AFD4FA590B490BB2485E1E82E82E06C
:1026B000F82ED12CC12C9AE0892E912CC601B401A0
:1026C0000E94A025812F511013C0860F9701402F23
:1026D000672D0E946405CA0CDB1C93E0E90EF11C17
:1026E000A3E3EA16A2E0FA0649F70E94BF0F9ACFC9
:1026F000861BECCFEDE3F2E0438128E0421B08F4B7
:1027000040E021E0628181810C94DE12EDE3F2E091
:10271000438128E0420F08F44FEF21E0628181817C
:102720000C94DE12EDE3F2E0628128E0621B08F413
:1027300060E021E0438181810C94DE12EDE3F2E060
:10274000628128E0620F08F46FEF21E0438181810C
:102750000C94DE12EDE3F2E0818121E0438162819D
:1027600088500C94DE12EDE3F2E0818121E0438198
:102770006281885F0C94DE12CF93DF9300D000D08B
:10278000CDB7DEB780914102882319F08150809344
:10279000410280913D0290913E02A0913F02B09192
:1027A000400289839A83AB83BC83BC01CD010F9027
:1027B0000F900F900F90DF91CF910C94CA12CF938E
:1027C000DF9300D000D0CDB7DEB7809141028330D7
:1027D00018F48F5F8093410280913D0290913E02F8
:1027E000A0913F02B091400289839A83AB83BC835E
:1027F000BC01CD010F900F900F900F90DF91CF9102
:102800000C94CA12CF93DF9300D000D0CDB7DEB7BF
:1028100090913D0290FF42C09170811135C092604D
:1028200090933D02662381F080913D0290913E029B
:10283000A0913F02B091400289839A83AB83BC830D
:10284000BC01CD010E94CA1260913D02669570E004
:102850004BE050E08AE091E00E94F925892BD9F005
:1028600010923A0281E080930F0220E040914002F2
:1028700060913F0280913E020F900F900F900F9059
:10288000DF91CF910C94DE12853210F09864C8CF9E
:10289000880F982BC5CF0E94A90FE4CF0F900F90FF
:1028A0000F900F90DF91CF91089521E030E0A901C2
:1028B00002C0440F551F8A95E2F7CA0120913B02DE
:1028C000662399F0822B80933B0280913A0281111A
:1028D00006C080913D0260E086950E9402148091BE
:1028E0003D0280FD05C00C94BF0F80958223EBCF85
:1028F0000895CF93C82FC17081FB662760F980E0EF
:102900000E9455146C2F84E0CF910C945514809143
:102910004302882309F444C080E00E947914109295
:102920003A0280914202811117C081E080934202F5
:1029300080913D02982F917090933C028E7F8093FE
:102940003D022FEF80E792E0215080409040E1F778
:1029500000C000000E94BF0F1092440288E190E086
:1029600020E40FB6F894A895809360000FBE2093E2
:10297000600083B7817F846083BF83B7816083BF3A
:102980007894889583B78E7F83BF0FB6F894A89507
:1029900080916000886180936000109260000FBE9B
:1029A0000895CF93C82F81FB662760F9811101C07C
:1029B00060E081E00E945514C2FB662760F9C111F6
:1029C00001C060E082E00E945514C3FB662760F9F5
:1029D000C11101C060E083E00E9455148C2FCF919B
:1029E00008950E94D114809306030C94D809809115
:1029F0000603982F9670963019F488600C94F114A1
:102A0000877FFCCF21E030E001C0220F8A95EAF7F2
:102A100020958091060382230C94F1149091DB01A0
:102A2000809589238093DB01282F277039F4282F84
:102A3000082E000C330B9217130621F49091E50138
:102A400092FF07C08595859585950E940215109285
:102A5000DB01089521E030E001C0220F8A95EAF7FA
:102A600080910603822B0C94F11490913D0296956F
:102A70008FEF890F913009F484E261E00C94021425
:102A800080913D0286958F5F853208F081E061E09C
:102A90000C94021490913D0290FF07C096959817F0
:102AA00020F0961710F40C94401561E00C94021479
:102AB000CF93DF9300D000D0CDB7DEB7EDE3F2E0E7
:102AC00083E0808311828FEF8283838314828081ED
:102AD0009181A281B38189839A83AB83BC83BC013A
:102AE000CD010F900F900F900F90DF91CF910C942C
:102AF000CA1269EE7EEF90E080E00E94452660E019
:102B000082E090E00E94272660E083E090E00E944F
:102B100027261092E00160E084E090E00E942726E2
:102B200060E082E290E00E94272660E085E090E08D
:102B30000E94272660E086E090E00E9427266FEF43
:102B400087E090E00E94272640E050E0BA0188E04C
:102B500090E00E94392660E08DE090E00E942726F8
:102B600040E050E0BA0188E190E00E94392660E040
:102B700087E190E00E94272640E050E0BA018CE116
:102B800090E00E94392670E060E080E290E00E94D0
:102B9000452640E050E0BA0188E190E00E943926E5
:102BA00080E00E94A10E0E94B90E40E050E0BA0100
:102BB0008FE090E00E94392640E050E0BA0183E1C6
:102BC00090E00C943926BF92CF92DF92EF92FF9261
:102BD0000F931F93CF93DF9300D000D00F92CDB708
:102BE000DEB71A821982FE01339683E0DF011D925F
:102BF0008A95E9F78CE4C82E81E0D82E10E000E039
:102C0000EE24E394F12CF60181916F018F3F09F4DA
:102C10004CC0F894E82FE295EF70F0E021A18F709E
:102C2000A70102C0440F551F8A95E2F7CA01922FEF
:102C3000982B91A392A18095892382A3789400C0B8
:102C4000E1E5F1E030E020E0B12C41914F3F09F4A3
:102C500073C0A42FA295AF70B0E090968C9190E0D5
:102C60004F7002C0959587954A95E2F780FD64C044
:102C70008E2D022E01C0880F0A94EAF7B82A2F5F22
:102C80003F4F2530310509F7F601319780818F3F9D
:102C900011F00E943A0750EA5A95F1F7E1E0F0E0AE
:102CA000EC0FFD1FE00FF11FB0820F5F1F4F0530CB
:102CB000110509F0A8CF45E050E0BE016F5F7F4FDE
:102CC00086EE91E00E9406269C0111E0892B09F412
:102CD00010E0232B99F185E0FE013196A6EEB1E0DC
:102CE00001900D928A95E1F781E08093E3010E94C3
:102CF0000B059093E2018093E1018091E1019091B5
:102D0000E2010E94FC040597E8F08091E6018093BF
:102D1000F6018091E7018093F7018091E8018093AB
:102D2000F8018091E9018093F9018091EA01809393
:102D3000FA011092E30106C080E0A0CF8091E30188
:102D40008111DBCF812F0F900F900F900F900F907C
:102D5000DF91CF911F910F91FF90EF90DF90CF9077
:102D6000BF90089590E080E00E942126893E9E4F0A
:102D700011F40C94820F80E008951092DE01E0E9D6
:102D8000F1E086E0DF011D928A95E9F70C94D809FD
:102D90003F924F925F926F927F928F929F92AF92EB
:102DA000BF92CF92DF92EF92FF920F931F93CF9338
:102DB000DF93CDB7DEB729970FB6F894DEBF0FBE0D
:102DC000CDBF8C01DC0113968D919C911497892BBA
:102DD00039F08C9111969C9189238F3F09F0CDC5D4
:102DE00029960FB6F894DEBF0FBECDBFDF91CF910D
:102DF0001F910F91FF90EF90DF90CF90BF90AF9019
:102E00009F908F907F906F905F904F903F9008952C
:102E10000E94150FF82E682F89819A810E94A909B6
:102E200069817A818F2D0E94080F7C01F8018281CF
:102E3000882309F494C5970122513F45203131057B
:102E400008F02AC58FEF93E00E941326FEEEEF0EE6
:102E50004FEE842E912C882391F18091DB018770B5
:102E600009F4BECFD80112968C91882309F4B8CF0B
:102E700082E029960FB6F894DEBF0FBECDBFDF917A
:102E8000CF911F910F91FF90EF90DF90CF90BF9067
:102E9000AF909F908F907F906F905F904F903F90FA
:102EA0000C940E15811424E09206B9F2C4010E941C
:102EB0001326811101C0EA943FEF831A930AE110AF
:102EC000F1CF80911A0190911B01A0911C01B0914A
:102ED0001D0189839A83AB83BC83442443943AE0E5
:102EE000332E74018FEFE81AF80AC4010E941326EA
:102EF00089831A82882309F4B0CF9FEF980F93300B
:102F000000F58A83498292E0890E911CC7010E94D4
:102F100013268B83882309F4A0CFDE0111967D014F
:102F2000F70120812223E9F2213009F04AC0918182
:102F30008281913041F4F2E0EF0EF11C0E94A30D6A
:102F400009C04701EACF923049F422E0E20EF11CB9
:102F50000E940D0DEFEFEE1AFE0AE2CF933031F42E
:102F600032E0E30EF11C0E94230AF4CF943021F0EA
:102F70008FEFE81AF80AEECF92E0E90EF11C30E08C
:102F800020E0B7016F5F7F4FD70111964C918053BE
:102F9000990B8A30910550F021503109D8F2EFE9B0
:102FA000FFE03197F1F700C00000F6CF329EF0014C
:102FB000339EF00D11249C012E0F3F1F842F7B01A7
:102FC000E0CFE22FF0E0E054FF4F5490822F86953F
:102FD0008695869590E0FC01E055FF4F6490277040
:102FE000712C022E02C0759467940A94E2F731E0C6
:102FF00063227724FC01E056FF4FA490B12C022EEF
:1030000002C0B594A7940A94E2F7A1E0AA22BB24D7
:10301000FC01E057FF4FC490D12C02C0D594C79457
:103020002A95E2F7B1E0CB22DD246114710419F096
:1030300081EE0E940D0DA114B10419F086EE0E94DC
:103040000D0D852D0E94A30DAB2819F086EE0E9470
:10305000230A672819F081EE0E94230ACD2809F47B
:1030600079CF8CE26BCF81E00E942A150E94F71481
:10307000F4CE81E00E940215F9CF82E0F5CFB5EFE2
:10308000EB16BCE5FB06E9F027E245EE66EEE6EF5F
:10309000EE16ECE5FE0649F027E245EE64EEF4EFAD
:1030A000EF16FCE5FF0609F022C4C8010E94BF0D1F
:1030B000D4CE27E245EE65EEF8CF26E241EE60EE93
:1030C000F4CF26E241EE62EEF0CF81E6E8168DE520
:1030D000F80609F422C48091DE01827226EDE21620
:1030E0002CE5F20608F0CFC032ECE3163CE5F3061F
:1030F00008F4D6C0F701E35CFC45E331F10508F0C4
:1031000020C1EF55F94D0C94C825F701E350FC455B
:103110008091E4018160E331F10548F5EC54F94D0B
:103120000C94C825B3E0EB16BDE5FB0680F4EAEF8E
:10313000EE16ECE5FE0608F402C4F701EB5FFC4571
:10314000E830F105F8F4E953F94D0C94C825F1E69F
:10315000EF16FDE5FF0609F0F2C39091E401892F17
:103160008F7E94FF806103C08091E4018260809330
:10317000E401E5C38091E4018460F9CF8091E4012A
:103180008860F5CF8091E50181608093E501D7C328
:103190008091E5018260F9CF8091E4018061E7CF01
:1031A0008091E4018062E3CF8091E4018064DFCF0D
:1031B0000E94BD168091E4018068D9CF8091E4011E
:1031C0008C60D5CF8091E5018360DFCF8091E401F1
:1031D0008E7FCDCF8091E4018D7FC9CF8091E401B6
:1031E0008B7FC5CF8091E401877FC1CF8091E501BE
:1031F0008E7FCBCF8091E5018D7FC7CF8091E40199
:103200008F7EB5CF8091E4018F7DB1CF8091E401B5
:103210008F7BADCF0E94BD168091E4018F77A7CF41
:103220008091E401837FA3CF8091E5018C7FADCFB6
:103230008091E40182FB992790F921E0922790FB8D
:1032400082F990FB83F993CF8091E501982F9095B7
:1032500091708E7F892B90FB81F997CF0E94BD16CC
:103260009091E401892F97FB87F9805880CF61E026
:103270008EE090E00E94272662C360E0F9CF85E3EC
:10328000A0C385E3AEC38DE5E816F80609F4E5CDE5
:10329000EAE5EE16EDE5FE0609F4F7C008F0CFC04A
:1032A000E1142CE5F20609F4DFC03EEDE3163CE53F
:1032B000F30609F4E7C0F8018281C080D180882339
:1032C00009F4E7C0C6010E94150FF82E682FC60149
:1032D0000E94A909B6018F2D0E94080F0E9496072F
:1032E0007C01882ED80112969C90129715967C909E
:1032F00072942FE072228091DB018770A1F0C92CBB
:10330000992091F08F2D807F803421F080E28E0D06
:10331000883048F082E00E940E158091DB018770B2
:10332000CC24C3948111C12C8F2D82958F70A82E2F
:10333000B12C8C3008F0E9C0F501E153F94D0C9443
:10334000C82580913D0280FF21C08E7F80933D0281
:1033500080913D0290913E02A0913F02B0914002C7
:103360008E839F83A887B987BC01CD010E94CA12B2
:1033700010923A029FEFA0E7B2E09150A040B04017
:10338000E1F700C000000E94BF0F67CD816080930D
:103390003D0261E086950E9402145FCD45E355E150
:1033A00060E475E10E944F0558CD40E455E165E3C6
:1033B00075E1F8CF4AEA53E163EB73E1F3CF43EBF6
:1033C00053E16AEA73E1EECF42E953E16EE973E15A
:1033D000E9CF4EE953E162E973E1E4CF4AE753E113
:1033E00066E873E1DFCF46E853E16AE773E1DACFDD
:1033F0004CEB53E16FED73E1D5CF4FED53E16CEB47
:1034000073E1D0CF61E081E0C6CF65E082E00E9449
:103410004A1523CD68E086E0FACF6EE089E0F7CF69
:1034200064E18FE0F4CF67E185E1F1CF61E088E10D
:10343000B2CF62E289E1EBCF61E083E2ACCF8BE512
:10344000E8168DE5F80619F19CE5E9169DE5F90603
:1034500009F031CF8091E50182FB882780F991E066
:1034600089270E94C80E27CF0E94BD16AFEFB4E394
:10347000ECE0A150B040E040E1F700C000000E9445
:10348000E704EBCC0E947915E8CC81E0EACF80E03C
:10349000E8CFC6010E947F09F82E1CCFBF2DBF7058
:1034A000DB2E8F2D807F19F0D29490EFD9228E2DB4
:1034B0009920C9F0DD2069F090E29E0D983010F05F
:1034C000E1100BC08091DE01D82AD092DE010E946B
:1034D00022098E2D0E940D0D18C08091DD01D82A81
:1034E000D092DD01F4CF0E94230ADD2071F0D09448
:1034F00080E28E0D883010F0811041C08091DE0195
:10350000D822D092DE010E94220998E0A91AB108BF
:10351000A4E0AA16B10420F40E9443050E94791485
:10352000CC2009F45DCC8091DB0180FD59CCF80101
:1035300012828595859585950E942A15C8010E945D
:10354000C8168091DB0185958595859529960FB6DE
:10355000F894DEBF0FBECDBFDF91CF911F910F91C9
:10356000FF90EF90DF90CF90BF90AF909F908F90A3
:103570007F906F905F904F903F900C9402158091D8
:10358000DD01D822D092DD01BECFEF2DEF70DE2E0F
:103590008F2D807F803219F0D29480EFD8228E2D2B
:1035A000882089F0F1E08F1699F19920F1F17720C8
:1035B000A9F1D80115968C91159780FF8ACF8F704D
:1035C00015968C932BC09920B1F09091DF018D2D31
:1035D000892B711003C00E94190A97CF21E0721243
:1035E000FACF2091E50122FD90CF981709F48DCFF5
:1035F0008093DF018ACF711006C00E941C098D2DB7
:103600000E940E0A82CF31E0731609F47ECFF5CF07
:10361000992031F085E0871508F477CF8D2DDBCF29
:1036200094E0971508F471CFEACF772041F38933FE
:1036300009F02AC1BFEFE7EEF3E0B150E040F040FF
:10364000E1F700C000008E2D0E94230A5ECF8F2D6F
:1036500086958695837061F0813009F056CFC70159
:103660009370911002C090E080E00E9417054DCF4A
:10367000C7019370911002C090E080E00E942D0578
:1036800044CF8E2D992029F00E94DE060E94FD0570
:103690003CCF0E942306FACF8F2D837099F59110AD
:1036A00034CF4E2D429546954770440F440F8E2DD2
:1036B0008F70042E01C0880F0A94EAF72E2D207116
:1036C000E4FE07C02FE030E001C0220F4A95EAF780
:1036D00020953F2D369536953370323071F033306A
:1036E00051F04091E001313029F0822B84230E9477
:1036F000F5090BCF842B822BFACF282B8091E00188
:103700008227F5CF8695992011F08F2D817088231F
:1037100009F4FBCE4E2D429546954770440F440F59
:103720008E2D8F70042E01C0880F0A94EAF72E2D7B
:103730002071E4FE07C02FE030E001C0220F4A955F
:10374000EAF720953F2D369536953370323071F07B
:10375000333051F040910603313029F0822B84231D
:103760000E94F114D2CE842B822BFACF282B809189
:1037700006038227F5CF9F2D9F70F92E992029F0FF
:10378000892F0E942A158E2D26CF8E2D0E940E0A7B
:103790008F2D0E940215B9CE8E2DA2EF8A1609F444
:1037A0004BC0A81570F0B0EF8B1639F1E1EF8E1613
:1037B000D9F1992009F45CC071108BCE8F2D8F71D7
:1037C00038C0F3EF8F16E9F124EF8212F2CF99207F
:1037D00009F443C09F2D9F71F92E892F0E942A154D
:1037E0008091E50182FD07C0A8E0FA9EC001112486
:1037F00083608093DB018F2D1CC0992081F034E021
:10380000371508F482CE2F2D2F7181E090E001C092
:10381000880F2A95EAF7909106038927A1CF85E0C2
:10382000871508F472CEEFCF8F2D8F71992009F490
:10383000B0CF0E942A1569CE8F2D8F719920C9F3C0
:10384000A8CF80E0992009F48BCF9F2D9F7181E054
:1038500001C0880F9A95EAF783CF81E00E940E1588
:10386000B1E0B71508F051CE82E00E940E154DCEA2
:10387000772079F0893341F4EFEFF7EE23E0E15060
:10388000F0402040E1F7DDCE8FE39CE90197F1F7AE
:10389000D8CE8F2D8F717DCFF0E1EF16FFE5FF06BB
:1038A00009F4E1CB21E1E2162FE5F20609F4E5CBBC
:1038B000F3EFEF16FCE5FF0609F4FFCB08F0DFCBD2
:1038C00038EDE3163CE5F30609F4F3CB28E241E0DA
:1038D00099EDE9169CE5F90609F4EDCB26E241EEF7
:1038E00061EEA7EDEA16ACE5FA0609F4DECB882313
:1038F00009F46CC01092050323E0E2162DE5F206F0
:1039000008F0E3CB3AEFE3163CE5F30630F4C701E9
:1039100082509C45449708F043C00E949B0F9093AF
:10392000E5018093E40196E1E9169CE5F90608F0CB
:10393000F9CBA2E0EA16ACE5FA0608F0E6CB609116
:10394000E401F090E50184E090E00E9427266F2DCD
:1039500082E290E00E9427260E94BD167ECA30E1D6
:10396000E3163FE5F30609F484CB91E1E9169FE500
:10397000F90609F09DCF82E07DCB85E0F801DE01FC
:10398000119601900D928A95E1F7D80112962C912B
:1039900089819A8121113CCA0E947F09F82E40CA70
:1039A000B6E1EB16BCE5FB0609F095CB8091DE0194
:1039B0008A7A91E009F490E09093960181115FCCAE
:1039C00089E20E945C090E94220947CAE6E1EE16DC
:1039D000ECE5FE0609F06FCC80919601811151CC87
:1039E00089E20E944F09EFCF1F93CF93DF9380911D
:1039F000A801807FA9F48091A501882389F0809196
:103A0000DA01D091A9016091A3017091A401A09164
:103A1000A601B091A701C62FC72316E0D81304C092
:103A2000DF91CF911F91089590E0109711F0CF3F53
:103A300019F401968770F2CF189F9001199F300DED
:103A40001124F901E655FE4F41814713F2CF408121
:103A50004613EFCF42814111ECCF438154814A1B81
:103A60005B0B483C510528F78091A8018F7080615D
:103A70008093A801F901E155FE4F80818F7080612C
:103A8000808383EA91E00E94C816DF91CF911F9155
:103A90000C947509AF92BF92CF92DF92EF92FF9292
:103AA0000F931F93CF93DF93CDB7DEB72B970FB64E
:103AB000F894DEBF0FBECDBF8C0185E0F801DE01BA
:103AC000179601900D928A95E1F7F801E28083EA5A
:103AD000A82E81E0B82E6091A6017091A701611512
:103AE000710509F41AC19091A3014091A401842F9A
:103AF00089238F3F09F411C120813181C380D48093
:103B0000F090A501F601E61BF70BFF2009F4D0C0E9
:103B10008091A801582F507FE83CF10508F0ABC018
:103B2000511177C0FE2C431321C092131FC0E11026
:103B30001DC08F7080618093A801C5010E94C816C6
:103B40008091A801F80185838F2D2B960FB6F894EC
:103B5000DEBF0FBECDBFDF91CF911F910F91FF90C0
:103B6000EF90DF90CF90BF90AF900895CD2829F0CF
:103B7000822F83238F3F09F0EBC080E0F82FF17094
:103B8000DF2EE091DA014091A90156E080FD1CC0D2
:103B9000EE20D1F28091A80181608093A801F12CE0
:103BA000D3CF8E2F90E05E9FF0011124E655FE4F9B
:103BB0006181361306C06081261303C06281E6125C
:103BC000E7CFFC013196E770E413EBCF2F83388702
:103BD0008F8198850E94440F292F22952F70903253
:103BE00060F0225F2F70223078F49F7051F0F8015E
:103BF0009581907F31F4D12C0AC09F7011F08823F9
:103C0000D1F3805E8830B8F3C8010E94C816FD2C3D
:103C10009BCF431306C0921304C0F801EE2009F4B1
:103C200061C0C8010E94520F882309F1EE20F9F00B
:103C30008091A801803270F02091A3013091A401FD
:103C40003A8329831B82DD82CC828E83CE0101964A
:103C50000E94C81686E0F801A3EAB1E001900D9237
:103C60008A95E1F70E94F41CFF24F3946DCFC801FC
:103C70000E94C816F9CF51110AC083EA91E00E9450
:103C8000C81686E0F50111928A95E9F788CF4313AB
:103C9000C8CF9213C6CFE110C4CFF8018583C80105
:103CA0000E94C81686E0F50111928A95E9F74CCF7B
:103CB000E83CF105B8F7FE2CEE20C9F243131FC013
:103CC00092131DC08091A80180FD10C0982F907F95
:103CD00069F0F8018583903F31F0982F907F905FD5
:103CE0008F70892B8583C8010E94C81686E0F80171
:103CF000A3EAB1E001900D928A95E1F725CFC801C2
:103D00000E94520F8111A6CF8091A80181608093FB
:103D1000A801C8010E94C81617CFEE2009F4A7CF4A
:103D2000C8010E94520FF82E882309F4A0CF86E024
:103D3000F801A3EAB1E001900D928A95E1F7809134
:103D4000A3019091A4010E94440F0E94F41CFCCE98
:103D500081E08E2513CF1F93CF93DF93CDB7DEB7CE
:103D600067970FB6F894DEBF0FBECDBF4B8B5C8B51
:103D70006D8B7E8B8F8B61111092DD011A8A2C89DD
:103D80008E899F893B893D872E876F87998B888B8A
:103D900086E0FE013D96DE01179601900D928A9510
:103DA000E1F7CE0107960E944A1D882389F016E0AC
:103DB0008091DA019091A90189134FC067960FB6DF
:103DC000F894DEBF0FBECDBFDF91CF911F91089554
:103DD00086E0FE013796DE01119601900D928A95DC
:103DE000E1F74A855B854115510509F37F816885B7
:103DF000862F87238F3FD9F22091A90130E0C90196
:103E0000019687709927E091DA01E817190671F495
:103E10000E94BD161092A9011092DA0186E0E3EA31
:103E2000F1E0DF011D928A95E9F7C1CF79836A83BA
:103E30005D834C8396E0929FD001939FB00D112437
:103E4000A655BE4FFE01319601900D929A95E1F76D
:103E50008093A9010E947509AACF819FC0011124F6
:103E600086559E4F0E944A1D882309F4A7CF809152
:103E7000DA0190E00196877099278093DA0198CF54
:103E800078941F921FB61F9211248F939F93AF9324
:103E9000BF938091450290914602A0914702B09154
:103EA00048020196A11DB11D8093450290934602E0
:103EB000A0934702B0934802BF91AF919F918F9119
:103EC0001F901FBE1F9018951F921FB61F9211249E
:103ED0008F939F93AF93BF9380914402811113C03E
:103EE0008091450290914602A0914702B09148020C
:103EF0004196A11DB11D8093450290934602A09367
:103F00004702B0934802BF91AF919F918F911F904C
:103F10001FBE1F901895CDB7DEB72F970FB6F89438
:103F2000DEBF0FBECDBF0E940B059093FC018093B6
:103F3000FB0180E890E00FB6F894809361009093C5
:103F400061000FBE88E397E090938D0180938C0110
:103F500080916900886080936900E99A8BE480937E
:103F600013038093480380931F038AE58093120311
:103F70008093470380931E03539A80E0815009F099
:103F800001C35398789482E084BD93E095BD9AEF85
:103F900097BD80936E000E94820F811102C00E9423
:103FA000B90E0CE411E051E5E52E51E0F52EF801D3
:103FB00081918F018F3F11F00E943A07E016F106C0
:103FC000B1F701E511E046E5E42E41E0F42ED80119
:103FD0008D918D018F3F11F00E943A07E016F10696
:103FE000B1F71092E6011092F6011092E7011092DB
:103FF000F7011092E8011092F8011092E901109275
:10400000F9011092EA011092FA010E94B216811190
:1040100002C00E94791582E090E00E9413268093EE
:10402000F0010E949B0F9093E5018093E4010E94B0
:10403000E315EFE3FCE93197F1F700C000000E94BF
:10404000E3158091F60180FF08C06FEF7FEF90E0ED
:1040500080E00E9445260E94E70483E090E00E94F1
:1040600013260E94F509809106030E94D1148091C5
:10407000EB01811133C00E94B216811104C00E946D
:1040800079150E94581588E090E00E941B266093E5
:104090003D0270933E0280933F02909340026E7FF8
:1040A00071F40E94581588E090E00E941B266093EE
:1040B0003D0270933E0280933F02909340020E9423
:1040C000550510923A0280913D0280FF04C060E0E5
:1040D00086950E94021481E08093EB015198599AD1
:1040E0005098589A89B186958170489953C290E04A
:1040F000892B8093EE0180E491E090930B028093F2
:104100000A0280E091E09093360280933502FFEF3F
:1041100020E732E0F15020403040E1F700C00000DD
:1041200024E0E22EF12C3CE4C32E31E0D32E80912A
:104130002D0310914302882309F436C210922D03F7
:104140000E940B059093FC018093FB011123F1F079
:10415000109243020E94BD160E9443050E947914EA
:104160001092420280913C02882309F415C280918A
:104170003D02816080933D0260E086950E940214BA
:104180000E94A90F80914302811110C20E94FD0A72
:104190008091FB02882309F4D8C18091120384FF27
:1041A000D4C10E94E315882359F08FB7F894409149
:1041B00045025091460260914702709148028FBFBC
:1041C000A6EFB1E0E1EFF1E010E000E0302F8D91DB
:1041D0009191981709F40CC2292F282790E0BB244D
:1041E000B394422F4B2109F4FEC199833A838B216A
:1041F00091E009F490E09B830E940B058160782F89
:104200009D838C8349815A816B818D810E94AB1E75
:10421000F801EF50FE4F8081B826B08280913A02BB
:104220008823D1F180913902E0913D02E695E81BA7
:10423000E0930E02823009F0F2C1F0E0E65AFE4F40
:10424000E4910E2F10E096EBA92E92E1B92E809109
:104250000F02882361F010920F020E940B059093C9
:104260000D0280930C0210921102109210020E9413
:104270000B05E0910C02F0910D028E1B9F0B8F3FFE
:104280009F4750F4E00FF11FF0930D02E0930C02F2
:104290008CE092E0F5010995E091EE01EE0FEE0F52
:1042A000E093EE0189B181FB662460F8489910C261
:1042B00080E08629E82BE093EE01EF70F0E0EA5A07
:1042C000FE4F80819091ED01890F8093ED0120E0F8
:1042D000843024F18091EC018F5F8093EC01809118
:1042E0000603282F30E050E040E02C873D874E87C2
:1042F0005F87CA01B9010E94800A44E064E00E941D
:10430000E20E8C010E94250E8FE39CE90197F1F7E4
:1043100000C00000C8010E94E50A21E08091ED0183
:104320008D3F24F58091EC0181508093EC018091C8
:104330000603282F30E050E040E02C873D874E8771
:104340005F87CA01B9010E94800A44E063E00E94CD
:10435000E20E8C010E94250E8FE39CE90197F1F794
:1043600000C00000C8010E94E50A21E08091ED0133
:10437000082E000C990BB7010E94B4258093ED0123
:10438000222359F08FB7F89440914502509146028C
:1043900060914702709148028FBF86E0E4E0F2E04E
:1043A000DE01119601900D928A95E1F700910602C7
:1043B00010910702A0900802B09009021092060224
:1043C000109207021092080210920902812F802B8E
:1043D00009F448C080910202909103020E94FC04FB
:1043E0009C018091FE01882309F497C32333310592
:1043F000C8F18F3F19F08F5F8093FE01002359F0C1
:104400000E94BE069FEF10160CF491E0899F802D4C
:10441000112480930602112359F00E94BE069FEFDB
:1044200011160CF491E0899F802D112480930702CE
:10443000309106023323B1F020910702222391F03C
:1044400045EB3403C0011124992309F444C190932E
:10445000060255EB250390011124332309F43FC1D3
:10446000309307028B2D8A2909F448C080910002FD
:10447000909101020E94FC049C018091FD0188231F
:1044800009F446C325363105C8F18F3F19F08F5F17
:104490008093FD01AA2059F00E949C069FEF1A14F8
:1044A0000CF491E0899F802D112480930802BB2099
:1044B00059F00E949C069FEF1B140CF491E0899F19
:1044C000802D112480930902309108023323B1F02A
:1044D00020910902222391F045EB3403C0011124FD
:1044E000992309F400C19093080255EB250390012C
:1044F0001124332309F4FBC0309309028091060292
:1045000090910702892B90910802892B90910902C2
:10451000892B11F00E94FD050B831C83AD82BE82A6
:1045200086E0FE013196A4E0B2E001900D928A95FA
:10453000E1F70E9443059091EF01891731F00E9445
:1045400043058093EF010E9479140E94AF0C0E94F2
:10455000FD0A8091FB02882309F4E9CD809147038D
:1045600084FFE5CD8091F102803209F0E0CDE09149
:10457000D102E150E33108F01CC1F0E0E552F94D01
:104580000C94C825A895AFE9BFE01197F1F700C0DA
:104590000000F4CC92E0ACCD80913B02882309F47A
:1045A000EFCD0E94BF0FECCD112371F00E94871454
:1045B0000E94E315E6EFF1E08191811182C241E0B2
:1045C000EB3FF407C9F7B3CD8091FB019091FC015B
:1045D0000E94FC04069708F4D9CD81E08093430241
:1045E0000E948714CFCD9F5FBB0C953009F0F9CDA9
:1045F0000F5F1F4F0530110509F0E8CD8FEF8F8356
:10460000888719860E940B058160782F9B878A878F
:104610004F81588569858B850E94AB1EFFCD863002
:1046200059F4F0E0E95AFE4FE4910E2F10E086EACB
:10463000A82E82E1B82E0BCE893061F4E695F0E029
:10464000EC5AFE4FE4910E2F10E0B1E1AB2EB2E137
:10465000BB2EFDCD8F3061F4E695F0E0EF5AFE4FB2
:10466000E4910E2F10E0A8EAAA2EA1E1BA2EEFCD18
:10467000853159F4F0E0E25BFE4FE4910E2F10E03B
:10468000FAE5AF2EF1E1BF2EE2CD08E210E065EBD6
:10469000A62E60E1B62E883109F4D9CD833241F4DB
:1046A000F60105911491ECE4AE2EE2E1BE2ECFCDE1
:1046B00004EF11E07DE7A72E70E1B72E843209F4F4
:1046C000C6CD00ED17E054E5A52E55E0B52EBFCDC3
:1046D00082E090E0EECD81E080930602BACE81E0E8
:1046E00080930702BFCE81E080930802FECE81E076
:1046F0008093090203CF1092D20289E08093D30203
:104700003CC08091D202823009F4F5C1833009F1B6
:10471000813009F04EC08FB7F89420914502309156
:10472000460240914702509148022C873D874E87B0
:104730005F878FBF6C857D858E859F850E94CE2586
:104740006093D3027093D4028093D5029093D602E3
:1047500014C08091F6018093D3028091F701809379
:10476000D4028091F8018093D5028091F901809361
:10477000D6028091FA018093D70201ED12E080C148
:104780008091D2028230A9F48091D3029091D40218
:10479000A091D502B091D6028C879D87AE87BF8746
:1047A000BC01CD010E94CE2586E290E00E94272622
:1047B000E4CF8FEF8093D102E0CF4091D40260919B
:1047C000D3028091D2020E94E20E9827892798276F
:1047D0009093D6028093D502D0CFA090D502B0900E
:1047E000D602BA24AB24BA248091D2020091D3021B
:1047F0009AE0099F80011124A2E38A9F000D111DF8
:1048000011248091D40290E0880F991F080F191F7E
:104810006B2DC80187960E9427266A2DC8018896AD
:10482000C5CF0E944C0EA9CF8091D202823809F4E4
:104830003FC008F5803851F1813809F09ECF60E023
:104840008091D3020E9402149091D30280913D0284
:10485000911126C08E7F80933D0210923A02BFEFE5
:10486000E0E7F2E0B150E040F040E1F700C00000C6
:104870000E94BF0F82CF833809F07FCF20E04091A4
:1048800040026091D4028091D30207C020E04091A1
:10489000D30260913F0280913E020E94DE126DCFF2
:1048A000816080933D0260E086950E94021465CF8E
:1048B0008091D3028093410260CF8091D2028238EE
:1048C000E9F058F48038A9F0813809F056CF80918A
:1048D0003D0280FF11C0869511CF833809F04DCF7E
:1048E00080913E028093D30280913F028093D40254
:1048F00044CF8091400202CF80E000CF80914102FE
:10490000FDCE20913D0230913E0240913F025091F8
:1049100040022C873D874E875F87CA01B9010E94FC
:10492000CA122BCF80E18093D20227CF83E08093FD
:10493000D20281E1E3CE0091D2021091D30210277E
:104940000127102731ED832E32E0932EA090D40260
:10495000B12CA5014F525D4F5A01C80181519F4FA3
:104960008A149B0409F409CF013153E0150758F468
:104970000E941326D40114968C930F5F1F4FFFEFF4
:104980008F1A9F0AEACFF4011482F7CF0091D20266
:104990001091D30210270127102721ED822E22E04B
:1049A000922EA090D402A00EB12EB11CC80181514C
:1049B0009F4FA016B10609F4E0CE013123E01207A3
:1049C00028F4D40114966C910E942726BFEF8B1A0D
:1049D0009B0A0F5F1F4FEACF0E943C0ECECE84E0B1
:1049E000A2CF0091D2021091D302102701271027E5
:1049F00091EDA92E92E0B92E8090D402912CF40171
:104A0000EF52FD4F4F01C80187968A149B0409F4A9
:104A1000B4CE083C110558F40E941326D501149613
:104A20008C930F5F1F4FFFEFAF1ABF0AECCFF5015A
:104A30001482F7CF0091D2021091D30210270127E0
:104A4000102781ED882E82E0982EA090D402A00E2F
:104A5000B12EB11CC8018796A016B10609F48DCEFF
:104A6000083C110528F4D40114966C910E94272665
:104A7000BFEF8B1A9B0A0F5F1F4FECCF0E94FD0AFE
:104A800080911E0384FFFACF4EE153E068E0C80135
:104A90000E944F0C085F1F4FE2E0013F1E0781F7A5
:104AA00080911E0384FF0AC04EE153E060E090E075
:104AB00080E00E944F0C1092F10239CB0E94FD0A57
:104AC000EFCFF8942AB15B9A822F8C608AB99BB1A0
:104AD0003CE093279BB9FFE748E351E0F1504040A9
:104AE0005040E1F700C000008BB183278BB92AB991
:104AF0005B9878941CCB86E290E00E94132610927B
:104B0000D3021092D4021092D5028093D60235CEF1
:104B10002D32314008F0BBCCF1CC2D32314008F0C1
:104B20006ACCA0CC87FB082E062687FD819567FD01
:104B300061950E94E4250EF4919507FC81950895F6
:104B4000AA1BBB1B51E107C0AA1FBB1FA617B707B3
:104B500010F0A61BB70B881F991F5A95A9F78095CF
:104B60009095BC01CD01089597FB072E16F4009493
:104B700007D077FD09D00E94A02507FC05D03EF4A0
:104B8000909581959F4F0895709561957F4F0895F9
:104B9000EE0FFF1F0590F491E02D099469279627E9
:104BA000692778278727782708950E94902633233E
:104BB00012F48A1B9B0B0C94DF250E949026B7FFF2
:104BC0000895821B930B0895991B79E004C0991FE7
:104BD000961708F0961B881F7A95C9F78095089557
:104BE000FB01DC0102C005900D9241505040D8F706
:104BF0000895FC014150504030F001900616D1F765
:104C00003197CF010895882799270895FB01DC018A
:104C100004C08D910190801921F441505040C8F793
:104C2000881B990B0895F999FECF92BD81BDF89A22
:104C3000992780B50895A6E1B0E044E050E00C94D7
:104C40004D26A8E1B0E042E050E00C944D26262F1E
:104C5000F999FECF92BD81BDF89A019700B4021672
:104C600039F01FBA20BD0FB6F894FA9AF99A0FBE20
:104C700008950396272F0E9428260E942726252F75
:104C80000E942826242F0C9428260196272F0E9464
:104C900028260C942726DC01CB01FC01F999FECFD4
:104CA00006C0F2BDE1BDF89A319600B40D924150B4
:104CB0005040B8F708950E949026A59F900DB49F8C
:104CC000900DA49F800D911D11240895B7FF0C94A1
:104CD0005B260E945B26821B930B0895A1E21A2E8D
:104CE000AA1BBB1BFD010DC0AA1FBB1FEE1FFF1F90
:104CF000A217B307E407F50720F0A21BB30BE40BE0
:104D0000F50B661F771F881F991F1A9469F7609526
:104D10007095809590959B01AC01BD01CF010895E0
:104D2000A29FB001B39FC001A39F700D811D1124EC
:104D3000911DB29F700D811D1124911D0895F8944D
:104D4000FFCFCE19D519DA19DF19E419E919EE19CF
:104D5000F319F819FD19021A051A0A1A0D1A101A70
:104D6000131A161A191A1C1AB418BA18BE18CC1825
:104D7000D018D418D818DE18E618EA18EE18F21869
:104D8000FE18021906190A1910192E191819C8182F
:104D9000F618FA18E2181419241937193D194E1A81
:104DA0004E1AC51AC51A271B411B851A851A4C1B9A
:104DB000BB1BCC1BCC1B7B238123C023DD23ED231A
:104DC000112414245D248124D923D92392249624E8
:0C4DD0009B24C624EC24EF24F1241A25B7
:104DDC00E404DE0C790CAB0CA70C01191A1B1C1D7E
:104DEC001E1F202122010201FF5A00000000E200D8
:104DFC00E900EA00B500B600B700CD008301CC0095
:104E0C008A01920194012102230224022502260226
:104E1C0027022A02B300B4006F007000313294965E
:104E2C0097606162636400FF0100010000FFFF00F6
:104E3C0000010001FF000001020202020606060941
:104E4C0009090909090F0F0F0F0F0F15151518195F
:0C4E5C0019191919191919191923240022
:00000001FF
